{
  "_format": "hh3-artifact-1",
  "contractName": "CarDealer",
  "sourceName": "contracts/CarDealer.sol",
  "abi": [
    {
      "inputs": [],
      "stateMutability": "nonpayable",
      "type": "constructor"
    },
    {
      "inputs": [
        {
          "internalType": "address",
          "name": "sender",
          "type": "address"
        },
        {
          "internalType": "uint256",
          "name": "tokenId",
          "type": "uint256"
        },
        {
          "internalType": "address",
          "name": "owner",
          "type": "address"
        }
      ],
      "name": "ERC721IncorrectOwner",
      "type": "error"
    },
    {
      "inputs": [
        {
          "internalType": "address",
          "name": "operator",
          "type": "address"
        },
        {
          "internalType": "uint256",
          "name": "tokenId",
          "type": "uint256"
        }
      ],
      "name": "ERC721InsufficientApproval",
      "type": "error"
    },
    {
      "inputs": [
        {
          "internalType": "address",
          "name": "approver",
          "type": "address"
        }
      ],
      "name": "ERC721InvalidApprover",
      "type": "error"
    },
    {
      "inputs": [
        {
          "internalType": "address",
          "name": "operator",
          "type": "address"
        }
      ],
      "name": "ERC721InvalidOperator",
      "type": "error"
    },
    {
      "inputs": [
        {
          "internalType": "address",
          "name": "owner",
          "type": "address"
        }
      ],
      "name": "ERC721InvalidOwner",
      "type": "error"
    },
    {
      "inputs": [
        {
          "internalType": "address",
          "name": "receiver",
          "type": "address"
        }
      ],
      "name": "ERC721InvalidReceiver",
      "type": "error"
    },
    {
      "inputs": [
        {
          "internalType": "address",
          "name": "sender",
          "type": "address"
        }
      ],
      "name": "ERC721InvalidSender",
      "type": "error"
    },
    {
      "inputs": [
        {
          "internalType": "uint256",
          "name": "tokenId",
          "type": "uint256"
        }
      ],
      "name": "ERC721NonexistentToken",
      "type": "error"
    },
    {
      "inputs": [],
      "name": "InsufficientFunds",
      "type": "error"
    },
    {
      "inputs": [],
      "name": "InvalidAmount",
      "type": "error"
    },
    {
      "inputs": [],
      "name": "InvalidCarOwner",
      "type": "error"
    },
    {
      "inputs": [],
      "name": "NotForSale",
      "type": "error"
    },
    {
      "inputs": [
        {
          "internalType": "address",
          "name": "owner",
          "type": "address"
        }
      ],
      "name": "OwnableInvalidOwner",
      "type": "error"
    },
    {
      "inputs": [
        {
          "internalType": "address",
          "name": "account",
          "type": "address"
        }
      ],
      "name": "OwnableUnauthorizedAccount",
      "type": "error"
    },
    {
      "anonymous": false,
      "inputs": [
        {
          "indexed": true,
          "internalType": "address",
          "name": "owner",
          "type": "address"
        },
        {
          "indexed": true,
          "internalType": "address",
          "name": "approved",
          "type": "address"
        },
        {
          "indexed": true,
          "internalType": "uint256",
          "name": "tokenId",
          "type": "uint256"
        }
      ],
      "name": "Approval",
      "type": "event"
    },
    {
      "anonymous": false,
      "inputs": [
        {
          "indexed": true,
          "internalType": "address",
          "name": "owner",
          "type": "address"
        },
        {
          "indexed": true,
          "internalType": "address",
          "name": "operator",
          "type": "address"
        },
        {
          "indexed": false,
          "internalType": "bool",
          "name": "approved",
          "type": "bool"
        }
      ],
      "name": "ApprovalForAll",
      "type": "event"
    },
    {
      "anonymous": false,
      "inputs": [
        {
          "indexed": false,
          "internalType": "uint256",
          "name": "_fromTokenId",
          "type": "uint256"
        },
        {
          "indexed": false,
          "internalType": "uint256",
          "name": "_toTokenId",
          "type": "uint256"
        }
      ],
      "name": "BatchMetadataUpdate",
      "type": "event"
    },
    {
      "anonymous": false,
      "inputs": [
        {
          "indexed": true,
          "internalType": "uint256",
          "name": "tokenId",
          "type": "uint256"
        }
      ],
      "name": "CarBurned",
      "type": "event"
    },
    {
      "anonymous": false,
      "inputs": [
        {
          "indexed": true,
          "internalType": "uint256",
          "name": "tokenId",
          "type": "uint256"
        },
        {
          "indexed": false,
          "internalType": "uint256",
          "name": "price",
          "type": "uint256"
        }
      ],
      "name": "CarListedForSale",
      "type": "event"
    },
    {
      "anonymous": false,
      "inputs": [
        {
          "indexed": true,
          "internalType": "uint256",
          "name": "tokenId",
          "type": "uint256"
        },
        {
          "indexed": false,
          "internalType": "string",
          "name": "make",
          "type": "string"
        },
        {
          "indexed": false,
          "internalType": "string",
          "name": "model",
          "type": "string"
        },
        {
          "indexed": false,
          "internalType": "uint256",
          "name": "year",
          "type": "uint256"
        },
        {
          "indexed": false,
          "internalType": "address",
          "name": "owner",
          "type": "address"
        }
      ],
      "name": "CarMinted",
      "type": "event"
    },
    {
      "anonymous": false,
      "inputs": [
        {
          "indexed": true,
          "internalType": "uint256",
          "name": "tokenId",
          "type": "uint256"
        },
        {
          "indexed": true,
          "internalType": "uint256",
          "name": "oldPrice",
          "type": "uint256"
        },
        {
          "indexed": true,
          "internalType": "uint256",
          "name": "newPrice",
          "type": "uint256"
        }
      ],
      "name": "CarPriceUpdated",
      "type": "event"
    },
    {
      "anonymous": false,
      "inputs": [
        {
          "indexed": true,
          "internalType": "uint256",
          "name": "tokenId",
          "type": "uint256"
        },
        {
          "indexed": true,
          "internalType": "address",
          "name": "newOwner",
          "type": "address"
        },
        {
          "indexed": false,
          "internalType": "uint256",
          "name": "price",
          "type": "uint256"
        }
      ],
      "name": "CarSold",
      "type": "event"
    },
    {
      "anonymous": false,
      "inputs": [
        {
          "indexed": true,
          "internalType": "uint256",
          "name": "tokenId",
          "type": "uint256"
        }
      ],
      "name": "CarUnlisted",
      "type": "event"
    },
    {
      "anonymous": false,
      "inputs": [
        {
          "indexed": false,
          "internalType": "address",
          "name": "owner",
          "type": "address"
        },
        {
          "indexed": false,
          "internalType": "uint256",
          "name": "amount",
          "type": "uint256"
        }
      ],
      "name": "FeesWithdrawn",
      "type": "event"
    },
    {
      "anonymous": false,
      "inputs": [
        {
          "indexed": false,
          "internalType": "uint256",
          "name": "oldFee",
          "type": "uint256"
        },
        {
          "indexed": false,
          "internalType": "uint256",
          "name": "newFeePercent",
          "type": "uint256"
        }
      ],
      "name": "MarketplaceFeeUpdated",
      "type": "event"
    },
    {
      "anonymous": false,
      "inputs": [
        {
          "indexed": false,
          "internalType": "uint256",
          "name": "_tokenId",
          "type": "uint256"
        }
      ],
      "name": "MetadataUpdate",
      "type": "event"
    },
    {
      "anonymous": false,
      "inputs": [
        {
          "indexed": true,
          "internalType": "address",
          "name": "previousOwner",
          "type": "address"
        },
        {
          "indexed": true,
          "internalType": "address",
          "name": "newOwner",
          "type": "address"
        }
      ],
      "name": "OwnershipTransferred",
      "type": "event"
    },
    {
      "anonymous": false,
      "inputs": [
        {
          "indexed": true,
          "internalType": "address",
          "name": "from",
          "type": "address"
        },
        {
          "indexed": true,
          "internalType": "address",
          "name": "to",
          "type": "address"
        },
        {
          "indexed": true,
          "internalType": "uint256",
          "name": "tokenId",
          "type": "uint256"
        }
      ],
      "name": "Transfer",
      "type": "event"
    },
    {
      "inputs": [
        {
          "internalType": "address",
          "name": "to",
          "type": "address"
        },
        {
          "internalType": "uint256",
          "name": "tokenId",
          "type": "uint256"
        }
      ],
      "name": "approve",
      "outputs": [],
      "stateMutability": "nonpayable",
      "type": "function"
    },
    {
      "inputs": [
        {
          "internalType": "address",
          "name": "owner",
          "type": "address"
        }
      ],
      "name": "balanceOf",
      "outputs": [
        {
          "internalType": "uint256",
          "name": "",
          "type": "uint256"
        }
      ],
      "stateMutability": "view",
      "type": "function"
    },
    {
      "inputs": [
        {
          "internalType": "uint256",
          "name": "tokenId",
          "type": "uint256"
        }
      ],
      "name": "burnCar",
      "outputs": [],
      "stateMutability": "nonpayable",
      "type": "function"
    },
    {
      "inputs": [
        {
          "internalType": "uint256",
          "name": "tokenId",
          "type": "uint256"
        }
      ],
      "name": "buyCar",
      "outputs": [],
      "stateMutability": "payable",
      "type": "function"
    },
    {
      "inputs": [
        {
          "internalType": "uint256",
          "name": "",
          "type": "uint256"
        }
      ],
      "name": "cars",
      "outputs": [
        {
          "internalType": "uint256",
          "name": "tokenId",
          "type": "uint256"
        },
        {
          "internalType": "string",
          "name": "make",
          "type": "string"
        },
        {
          "internalType": "string",
          "name": "model",
          "type": "string"
        },
        {
          "internalType": "uint256",
          "name": "year",
          "type": "uint256"
        },
        {
          "internalType": "uint256",
          "name": "price",
          "type": "uint256"
        },
        {
          "internalType": "address",
          "name": "owner",
          "type": "address"
        },
        {
          "internalType": "bool",
          "name": "isForSale",
          "type": "bool"
        }
      ],
      "stateMutability": "view",
      "type": "function"
    },
    {
      "inputs": [],
      "name": "getAllCars",
      "outputs": [
        {
          "components": [
            {
              "internalType": "uint256",
              "name": "tokenId",
              "type": "uint256"
            },
            {
              "internalType": "string",
              "name": "make",
              "type": "string"
            },
            {
              "internalType": "string",
              "name": "model",
              "type": "string"
            },
            {
              "internalType": "uint256",
              "name": "year",
              "type": "uint256"
            },
            {
              "internalType": "uint256",
              "name": "price",
              "type": "uint256"
            },
            {
              "internalType": "address",
              "name": "owner",
              "type": "address"
            },
            {
              "internalType": "bool",
              "name": "isForSale",
              "type": "bool"
            }
          ],
          "internalType": "struct CarDealer.Car[]",
          "name": "",
          "type": "tuple[]"
        }
      ],
      "stateMutability": "view",
      "type": "function"
    },
    {
      "inputs": [
        {
          "internalType": "uint256",
          "name": "tokenId",
          "type": "uint256"
        }
      ],
      "name": "getApproved",
      "outputs": [
        {
          "internalType": "address",
          "name": "",
          "type": "address"
        }
      ],
      "stateMutability": "view",
      "type": "function"
    },
    {
      "inputs": [
        {
          "internalType": "uint256",
          "name": "tokenId",
          "type": "uint256"
        }
      ],
      "name": "getCarDetails",
      "outputs": [
        {
          "components": [
            {
              "internalType": "uint256",
              "name": "tokenId",
              "type": "uint256"
            },
            {
              "internalType": "string",
              "name": "make",
              "type": "string"
            },
            {
              "internalType": "string",
              "name": "model",
              "type": "string"
            },
            {
              "internalType": "uint256",
              "name": "year",
              "type": "uint256"
            },
            {
              "internalType": "uint256",
              "name": "price",
              "type": "uint256"
            },
            {
              "internalType": "address",
              "name": "owner",
              "type": "address"
            },
            {
              "internalType": "bool",
              "name": "isForSale",
              "type": "bool"
            }
          ],
          "internalType": "struct CarDealer.Car",
          "name": "",
          "type": "tuple"
        }
      ],
      "stateMutability": "view",
      "type": "function"
    },
    {
      "inputs": [
        {
          "internalType": "string",
          "name": "make",
          "type": "string"
        }
      ],
      "name": "getCarsByMake",
      "outputs": [
        {
          "components": [
            {
              "internalType": "uint256",
              "name": "tokenId",
              "type": "uint256"
            },
            {
              "internalType": "string",
              "name": "make",
              "type": "string"
            },
            {
              "internalType": "string",
              "name": "model",
              "type": "string"
            },
            {
              "internalType": "uint256",
              "name": "year",
              "type": "uint256"
            },
            {
              "internalType": "uint256",
              "name": "price",
              "type": "uint256"
            },
            {
              "internalType": "address",
              "name": "owner",
              "type": "address"
            },
            {
              "internalType": "bool",
              "name": "isForSale",
              "type": "bool"
            }
          ],
          "internalType": "struct CarDealer.Car[]",
          "name": "",
          "type": "tuple[]"
        }
      ],
      "stateMutability": "view",
      "type": "function"
    },
    {
      "inputs": [
        {
          "internalType": "address",
          "name": "owner",
          "type": "address"
        }
      ],
      "name": "getCarsByOwner",
      "outputs": [
        {
          "components": [
            {
              "internalType": "uint256",
              "name": "tokenId",
              "type": "uint256"
            },
            {
              "internalType": "string",
              "name": "make",
              "type": "string"
            },
            {
              "internalType": "string",
              "name": "model",
              "type": "string"
            },
            {
              "internalType": "uint256",
              "name": "year",
              "type": "uint256"
            },
            {
              "internalType": "uint256",
              "name": "price",
              "type": "uint256"
            },
            {
              "internalType": "address",
              "name": "owner",
              "type": "address"
            },
            {
              "internalType": "bool",
              "name": "isForSale",
              "type": "bool"
            }
          ],
          "internalType": "struct CarDealer.Car[]",
          "name": "",
          "type": "tuple[]"
        }
      ],
      "stateMutability": "view",
      "type": "function"
    },
    {
      "inputs": [
        {
          "internalType": "uint256",
          "name": "minPrice",
          "type": "uint256"
        },
        {
          "internalType": "uint256",
          "name": "maxPrice",
          "type": "uint256"
        }
      ],
      "name": "getCarsByPriceRange",
      "outputs": [
        {
          "components": [
            {
              "internalType": "uint256",
              "name": "tokenId",
              "type": "uint256"
            },
            {
              "internalType": "string",
              "name": "make",
              "type": "string"
            },
            {
              "internalType": "string",
              "name": "model",
              "type": "string"
            },
            {
              "internalType": "uint256",
              "name": "year",
              "type": "uint256"
            },
            {
              "internalType": "uint256",
              "name": "price",
              "type": "uint256"
            },
            {
              "internalType": "address",
              "name": "owner",
              "type": "address"
            },
            {
              "internalType": "bool",
              "name": "isForSale",
              "type": "bool"
            }
          ],
          "internalType": "struct CarDealer.Car[]",
          "name": "",
          "type": "tuple[]"
        }
      ],
      "stateMutability": "view",
      "type": "function"
    },
    {
      "inputs": [],
      "name": "getCarsForSale",
      "outputs": [
        {
          "components": [
            {
              "internalType": "uint256",
              "name": "tokenId",
              "type": "uint256"
            },
            {
              "internalType": "string",
              "name": "make",
              "type": "string"
            },
            {
              "internalType": "string",
              "name": "model",
              "type": "string"
            },
            {
              "internalType": "uint256",
              "name": "year",
              "type": "uint256"
            },
            {
              "internalType": "uint256",
              "name": "price",
              "type": "uint256"
            },
            {
              "internalType": "address",
              "name": "owner",
              "type": "address"
            },
            {
              "internalType": "bool",
              "name": "isForSale",
              "type": "bool"
            }
          ],
          "internalType": "struct CarDealer.Car[]",
          "name": "",
          "type": "tuple[]"
        }
      ],
      "stateMutability": "view",
      "type": "function"
    },
    {
      "inputs": [],
      "name": "getMarketplaceStats",
      "outputs": [
        {
          "internalType": "uint256",
          "name": "totalCars",
          "type": "uint256"
        },
        {
          "internalType": "uint256",
          "name": "carsForSale",
          "type": "uint256"
        },
        {
          "internalType": "uint256",
          "name": "feesCollected",
          "type": "uint256"
        },
        {
          "internalType": "uint256",
          "name": "feePercent",
          "type": "uint256"
        }
      ],
      "stateMutability": "view",
      "type": "function"
    },
    {
      "inputs": [],
      "name": "getTotalCars",
      "outputs": [
        {
          "internalType": "uint256",
          "name": "",
          "type": "uint256"
        }
      ],
      "stateMutability": "view",
      "type": "function"
    },
    {
      "inputs": [
        {
          "internalType": "address",
          "name": "owner",
          "type": "address"
        },
        {
          "internalType": "address",
          "name": "operator",
          "type": "address"
        }
      ],
      "name": "isApprovedForAll",
      "outputs": [
        {
          "internalType": "bool",
          "name": "",
          "type": "bool"
        }
      ],
      "stateMutability": "view",
      "type": "function"
    },
    {
      "inputs": [
        {
          "internalType": "uint256",
          "name": "tokenId",
          "type": "uint256"
        },
        {
          "internalType": "uint256",
          "name": "price",
          "type": "uint256"
        }
      ],
      "name": "listCarForSale",
      "outputs": [],
      "stateMutability": "nonpayable",
      "type": "function"
    },
    {
      "inputs": [],
      "name": "marketplaceFeePercent",
      "outputs": [
        {
          "internalType": "uint256",
          "name": "",
          "type": "uint256"
        }
      ],
      "stateMutability": "view",
      "type": "function"
    },
    {
      "inputs": [
        {
          "internalType": "string",
          "name": "make",
          "type": "string"
        },
        {
          "internalType": "string",
          "name": "model",
          "type": "string"
        },
        {
          "internalType": "uint256",
          "name": "year",
          "type": "uint256"
        },
        {
          "internalType": "string",
          "name": "_tokenURI",
          "type": "string"
        }
      ],
      "name": "mintCar",
      "outputs": [],
      "stateMutability": "nonpayable",
      "type": "function"
    },
    {
      "inputs": [],
      "name": "name",
      "outputs": [
        {
          "internalType": "string",
          "name": "",
          "type": "string"
        }
      ],
      "stateMutability": "view",
      "type": "function"
    },
    {
      "inputs": [],
      "name": "owner",
      "outputs": [
        {
          "internalType": "address",
          "name": "",
          "type": "address"
        }
      ],
      "stateMutability": "view",
      "type": "function"
    },
    {
      "inputs": [
        {
          "internalType": "uint256",
          "name": "tokenId",
          "type": "uint256"
        }
      ],
      "name": "ownerOf",
      "outputs": [
        {
          "internalType": "address",
          "name": "",
          "type": "address"
        }
      ],
      "stateMutability": "view",
      "type": "function"
    },
    {
      "inputs": [],
      "name": "renounceOwnership",
      "outputs": [],
      "stateMutability": "nonpayable",
      "type": "function"
    },
    {
      "inputs": [
        {
          "internalType": "address",
          "name": "from",
          "type": "address"
        },
        {
          "internalType": "address",
          "name": "to",
          "type": "address"
        },
        {
          "internalType": "uint256",
          "name": "tokenId",
          "type": "uint256"
        }
      ],
      "name": "safeTransferFrom",
      "outputs": [],
      "stateMutability": "nonpayable",
      "type": "function"
    },
    {
      "inputs": [
        {
          "internalType": "address",
          "name": "from",
          "type": "address"
        },
        {
          "internalType": "address",
          "name": "to",
          "type": "address"
        },
        {
          "internalType": "uint256",
          "name": "tokenId",
          "type": "uint256"
        },
        {
          "internalType": "bytes",
          "name": "data",
          "type": "bytes"
        }
      ],
      "name": "safeTransferFrom",
      "outputs": [],
      "stateMutability": "nonpayable",
      "type": "function"
    },
    {
      "inputs": [
        {
          "internalType": "address",
          "name": "operator",
          "type": "address"
        },
        {
          "internalType": "bool",
          "name": "approved",
          "type": "bool"
        }
      ],
      "name": "setApprovalForAll",
      "outputs": [],
      "stateMutability": "nonpayable",
      "type": "function"
    },
    {
      "inputs": [
        {
          "internalType": "uint256",
          "name": "newFeePercent",
          "type": "uint256"
        }
      ],
      "name": "setMarketplaceFee",
      "outputs": [],
      "stateMutability": "nonpayable",
      "type": "function"
    },
    {
      "inputs": [
        {
          "internalType": "bytes4",
          "name": "interfaceId",
          "type": "bytes4"
        }
      ],
      "name": "supportsInterface",
      "outputs": [
        {
          "internalType": "bool",
          "name": "",
          "type": "bool"
        }
      ],
      "stateMutability": "view",
      "type": "function"
    },
    {
      "inputs": [],
      "name": "symbol",
      "outputs": [
        {
          "internalType": "string",
          "name": "",
          "type": "string"
        }
      ],
      "stateMutability": "view",
      "type": "function"
    },
    {
      "inputs": [
        {
          "internalType": "uint256",
          "name": "tokenId",
          "type": "uint256"
        }
      ],
      "name": "tokenURI",
      "outputs": [
        {
          "internalType": "string",
          "name": "",
          "type": "string"
        }
      ],
      "stateMutability": "view",
      "type": "function"
    },
    {
      "inputs": [],
      "name": "totalFeesCollected",
      "outputs": [
        {
          "internalType": "uint256",
          "name": "",
          "type": "uint256"
        }
      ],
      "stateMutability": "view",
      "type": "function"
    },
    {
      "inputs": [
        {
          "internalType": "address",
          "name": "from",
          "type": "address"
        },
        {
          "internalType": "address",
          "name": "to",
          "type": "address"
        },
        {
          "internalType": "uint256",
          "name": "tokenId",
          "type": "uint256"
        }
      ],
      "name": "transferFrom",
      "outputs": [],
      "stateMutability": "nonpayable",
      "type": "function"
    },
    {
      "inputs": [
        {
          "internalType": "address",
          "name": "newOwner",
          "type": "address"
        }
      ],
      "name": "transferOwnership",
      "outputs": [],
      "stateMutability": "nonpayable",
      "type": "function"
    },
    {
      "inputs": [
        {
          "internalType": "uint256",
          "name": "tokenId",
          "type": "uint256"
        }
      ],
      "name": "unlistCar",
      "outputs": [],
      "stateMutability": "nonpayable",
      "type": "function"
    },
    {
      "inputs": [
        {
          "internalType": "uint256",
          "name": "tokenId",
          "type": "uint256"
        },
        {
          "internalType": "uint256",
          "name": "newPrice",
          "type": "uint256"
        }
      ],
      "name": "updatePrice",
      "outputs": [],
      "stateMutability": "nonpayable",
      "type": "function"
    },
    {
      "inputs": [],
      "name": "withdrawFees",
      "outputs": [],
      "stateMutability": "nonpayable",
      "type": "function"
    }
  ],
  "bytecode": "0x60806040526002600955348015610014575f5ffd5b50336040518060400160405280600981526020016821b0b92232b0b632b960b91b8152506040518060400160405280600381526020016221a0a960e91b815250815f90816100629190610197565b50600161006f8282610197565b5050506001600160a01b03811661009f57604051631e4fbdf760e01b81525f600482015260240160405180910390fd5b6100a8816100ae565b50610251565b600780546001600160a01b038381166001600160a01b0319831681179093556040519116919082907f8be0079c531659141344cd1fd0a4f28419497f9722a3daafe3b4186f6b6457e0905f90a35050565b634e487b7160e01b5f52604160045260245ffd5b600181811c9082168061012757607f821691505b60208210810361014557634e487b7160e01b5f52602260045260245ffd5b50919050565b601f82111561019257805f5260205f20601f840160051c810160208510156101705750805b601f840160051c820191505b8181101561018f575f815560010161017c565b50505b505050565b81516001600160401b038111156101b0576101b06100ff565b6101c4816101be8454610113565b8461014b565b6020601f8211600181146101f6575f83156101df5750848201515b5f19600385901b1c1916600184901b17845561018f565b5f84815260208120601f198516915b828110156102255787850151825560209485019460019092019101610205565b508482101561024257868401515f19600387901b60f8161c191681555b50505050600190811b01905550565b6135d88061025e5f395ff3fe6080604052600436106101fc575f3560e01c806376b4646d11610113578063abfe5d571161009d578063e985e9c51161006d578063e985e9c5146105a8578063f2fde38b146105c7578063f504fa64146105e6578063f688838414610605578063f7746e3614610624575f5ffd5b8063abfe5d5714610537578063b88d4fde1461054b578063c75bb4f41461056a578063c87b56dd14610589575f5ffd5b80638da5cb5b116100e35780638da5cb5b146104a95780639407ea98146104c657806395d89b41146104e5578063a22cb465146104f9578063a8e76b6f14610518575f5ffd5b806376b4646d1461041657806378c9408e14610437578063812d966a1461045657806382367b2d1461048a575f5ffd5b806338d73b0d1161019457806360c6d8ae1161016457806360c6d8ae1461039c5780636352211e146103b15780636c231060146103d057806370a08231146103e3578063715018a614610402575f5ffd5b806338d73b0d1461032857806342842e0e1461033d578063472ec4541461035c578063476343ee14610388575f5ffd5b806316223a3e116101cf57806316223a3e146102ad578063166c7459146102cb57806323b872dd146102ea5780633270116014610309575f5ffd5b806301ffc9a71461020057806306fdde0314610234578063081812fc14610255578063095ea7b31461028c575b5f5ffd5b34801561020b575f5ffd5b5061021f61021a366004612dab565b610656565b60405190151581526020015b60405180910390f35b34801561023f575f5ffd5b50610248610666565b60405161022b9190612df4565b348015610260575f5ffd5b5061027461026f366004612e06565b6106f5565b6040516001600160a01b03909116815260200161022b565b348015610297575f5ffd5b506102ab6102a6366004612e38565b61071c565b005b3480156102b8575f5ffd5b506008545b60405190815260200161022b565b3480156102d6575f5ffd5b506102ab6102e5366004612e06565b61072b565b3480156102f5575f5ffd5b506102ab610304366004612e60565b610823565b348015610314575f5ffd5b506102ab610323366004612f41565b6108ac565b348015610333575f5ffd5b506102bd60095481565b348015610348575f5ffd5b506102ab610357366004612e60565b610a05565b348015610367575f5ffd5b5061037b610376366004612e06565b610a24565b60405161022b919061304c565b348015610393575f5ffd5b506102ab610be5565b3480156103a7575f5ffd5b506102bd600a5481565b3480156103bc575f5ffd5b506102746103cb366004612e06565b610cc7565b6102ab6103de366004612e06565b610cd1565b3480156103ee575f5ffd5b506102bd6103fd36600461305e565b610ed7565b34801561040d575f5ffd5b506102ab610f1c565b348015610421575f5ffd5b5061042a610f2f565b60405161022b9190613077565b348015610442575f5ffd5b5061042a6104513660046130da565b6111ca565b348015610461575f5ffd5b5061046a611492565b60408051948552602085019390935291830152606082015260800161022b565b348015610495575f5ffd5b506102ab6104a436600461310b565b6114f7565b3480156104b4575f5ffd5b506007546001600160a01b0316610274565b3480156104d1575f5ffd5b506102ab6104e0366004612e06565b6115fc565b3480156104f0575f5ffd5b50610248611693565b348015610504575f5ffd5b506102ab61051336600461312b565b6116a2565b348015610523575f5ffd5b5061042a61053236600461310b565b6116ad565b348015610542575f5ffd5b5061042a6119ba565b348015610556575f5ffd5b506102ab610565366004613164565b611bd6565b348015610575575f5ffd5b5061042a61058436600461305e565b611bee565b348015610594575f5ffd5b506102486105a3366004612e06565b611e79565b3480156105b3575f5ffd5b5061021f6105c23660046131ce565b611e84565b3480156105d2575f5ffd5b506102ab6105e136600461305e565b611eb1565b3480156105f1575f5ffd5b506102ab610600366004612e06565b611eee565b348015610610575f5ffd5b506102ab61061f36600461310b565b611f9d565b34801561062f575f5ffd5b5061064361063e366004612e06565b612088565b60405161022b97969594939291906131ff565b5f610660826121df565b92915050565b60605f80546106749061325b565b80601f01602080910402602001604051908101604052809291908181526020018280546106a09061325b565b80156106eb5780601f106106c2576101008083540402835291602001916106eb565b820191905f5260205f20905b8154815290600101906020018083116106ce57829003601f168201915b5050505050905090565b5f6106ff82612203565b505f828152600460205260409020546001600160a01b0316610660565b61072782823361223a565b5050565b805f61073682612247565b6001600160a01b0316036107655760405162461bcd60e51b815260040161075c9061328d565b60405180910390fd5b3361076f83610cc7565b6001600160a01b03161461079657604051630598950160e21b815260040160405180910390fd5b6107a03383612261565b6107a98261231b565b5f828152600b60205260408120818155906107c76001830182612d04565b6107d4600283015f612d04565b505f6003820181905560048201819055600590910180546001600160a81b031916905560405183917ff803933b4fa290599e801fcfe51b387807a92b14b767d26c9d101c7f3e9491d091a25050565b6001600160a01b03821661084c57604051633250574960e11b81525f600482015260240161075c565b5f610858838333612353565b9050836001600160a01b0316816001600160a01b0316146108a6576040516364283d7b60e01b81526001600160a01b038086166004830152602482018490528216604482015260640161075c565b50505050565b6108b4612440565b60088054905f6108c3836132cf565b90915550506008546108d5338261246d565b6108df8183612486565b6040805160e0810182528281526020808201888152828401889052606083018790525f608084018190523360a085015260c08401819052858152600b9092529290208151815591519091906001820190610939908261332b565b506040820151600282019061094e908261332b565b50606082015160038201556080820151600482015560a08201516005909101805460c0909301511515600160a01b026001600160a81b03199093166001600160a01b0390921691909117919091179055335f818152600c60209081526040808320805460018101825590845291909220018390555182917fdf5a8f7990289505d15fed39dfc80597d2e8ddbaa80d8aa81fc3c394ddc4497a916109f6918991899189916133e5565b60405180910390a25050505050565b610a1f83838360405180602001604052805f815250611bd6565b505050565b610a2c612d3b565b815f610a3782612247565b6001600160a01b031603610a5d5760405162461bcd60e51b815260040161075c9061328d565b600b5f8481526020019081526020015f206040518060e00160405290815f8201548152602001600182018054610a929061325b565b80601f0160208091040260200160405190810160405280929190818152602001828054610abe9061325b565b8015610b095780601f10610ae057610100808354040283529160200191610b09565b820191905f5260205f20905b815481529060010190602001808311610aec57829003601f168201915b50505050508152602001600282018054610b229061325b565b80601f0160208091040260200160405190810160405280929190818152602001828054610b4e9061325b565b8015610b995780601f10610b7057610100808354040283529160200191610b99565b820191905f5260205f20905b815481529060010190602001808311610b7c57829003601f168201915b505050918352505060038201546020820152600482015460408201526005909101546001600160a01b0381166060830152600160a01b900460ff16151560809091015291505b50919050565b610bed612440565b600a5480610c335760405162461bcd60e51b81526020600482015260136024820152724e6f206665657320746f20776974686472617760681b604482015260640161075c565b5f600a8190556007546040516001600160a01b039091169183156108fc02918491818181858888f19350505050158015610c6f573d5f5f3e3d5ffd5b507fc0819c13be868895eb93e40eaceb96de976442fa1d404e5c55f14bb65a8c489a610ca36007546001600160a01b031690565b604080516001600160a01b039092168252602082018490520160405180910390a150565b5f61066082612203565b805f610cdc82612247565b6001600160a01b031603610d025760405162461bcd60e51b815260040161075c9061328d565b5f828152600b6020526040812090610d1984610cc7565b6005830154909150600160a01b900460ff16610d4857604051631d99ddbf60e01b815260040160405180910390fd5b8160040154341015610d6d5760405163356680b760e01b815260040160405180910390fd5b336001600160a01b03821603610dc55760405162461bcd60e51b815260206004820152601760248201527f43616e6e6f742062757920796f7572206f776e20636172000000000000000000604482015260640161075c565b5f606460095434610dd6919061342b565b610de09190613442565b90505f610ded8234613461565b905081600a5f828254610e009190613474565b909155505060405183906001600160a01b0382169083156108fc029084905f818181858888f19350505050158015610e3a573d5f5f3e3d5ffd5b50610e458488612261565b610e508433896124ce565b6005850180546001600160a81b0319163360ff60a01b198116919091179091555f60048701819055818152600c602090815260408083208054600181018255908452928290209092018a9055905134815289917f9d90e6b7483b210fb2eb1814d730195955d020389f316a5127d8f07d6fe61c8b910160405180910390a350505050505050565b5f6001600160a01b038216610f01576040516322718ad960e21b81525f600482015260240161075c565b506001600160a01b03165f9081526003602052604090205490565b610f24612440565b610f2d5f61257b565b565b6008546060905f60015b828111610f80575f818152600b6020526040902060050154600160a01b900460ff1615610f6e5781610f6a816132cf565b9250505b80610f78816132cf565b915050610f39565b505f816001600160401b03811115610f9a57610f9a612e9a565b604051908082528060200260200182016040528015610fd357816020015b610fc0612d3b565b815260200190600190039081610fb85790505b5090505f60015b8481116111c0575f818152600b6020526040902060050154600160a01b900460ff16156111ae57600b5f8281526020019081526020015f206040518060e00160405290815f82015481526020016001820180546110369061325b565b80601f01602080910402602001604051908101604052809291908181526020018280546110629061325b565b80156110ad5780601f10611084576101008083540402835291602001916110ad565b820191905f5260205f20905b81548152906001019060200180831161109057829003601f168201915b505050505081526020016002820180546110c69061325b565b80601f01602080910402602001604051908101604052809291908181526020018280546110f29061325b565b801561113d5780601f106111145761010080835404028352916020019161113d565b820191905f5260205f20905b81548152906001019060200180831161112057829003601f168201915b505050918352505060038201546020820152600482015460408201526005909101546001600160a01b0381166060830152600160a01b900460ff161515608090910152835184908490811061119457611194613487565b602002602001018190525081806111aa906132cf565b9250505b806111b8816132cf565b915050610fda565b5090949350505050565b6008546060905f60015b828111611231578480519060200120600b5f8381526020019081526020015f20600101604051611204919061349b565b60405180910390200361121f578161121b816132cf565b9250505b80611229816132cf565b9150506111d4565b505f816001600160401b0381111561124b5761124b612e9a565b60405190808252806020026020018201604052801561128457816020015b611271612d3b565b8152602001906001900390816112695790505b5090505f60015b848111611487578680519060200120600b5f8381526020019081526020015f206001016040516112bb919061349b565b60405180910390200361147557600b5f8281526020019081526020015f206040518060e00160405290815f82015481526020016001820180546112fd9061325b565b80601f01602080910402602001604051908101604052809291908181526020018280546113299061325b565b80156113745780601f1061134b57610100808354040283529160200191611374565b820191905f5260205f20905b81548152906001019060200180831161135757829003601f168201915b5050505050815260200160028201805461138d9061325b565b80601f01602080910402602001604051908101604052809291908181526020018280546113b99061325b565b80156114045780601f106113db57610100808354040283529160200191611404565b820191905f5260205f20905b8154815290600101906020018083116113e757829003601f168201915b505050918352505060038201546020820152600482015460408201526005909101546001600160a01b0381166060830152600160a01b900460ff161515608090910152835184908490811061145b5761145b613487565b60200260200101819052508180611471906132cf565b9250505b8061147f816132cf565b91505061128b565b509095945050505050565b6008545f80808060015b8581116114e3575f818152600b6020526040902060050154600160a01b900460ff16156114d157816114cd816132cf565b9250505b806114db816132cf565b91505061149c565b50600a546009549194509250905090919293565b815f61150282612247565b6001600160a01b0316036115285760405162461bcd60e51b815260040161075c9061328d565b3361153284610cc7565b6001600160a01b03161461155957604051630598950160e21b815260040160405180910390fd5b5f82116115795760405163162908e360e11b815260040160405180910390fd5b5f838152600b6020526040902060050154600160a01b900460ff166115b157604051631d99ddbf60e01b815260040160405180910390fd5b5f838152600b6020526040808220600401805490859055905190918491839187917f43e68a2721b660c0f4d1d76e81f0925cc0323fe4868e8f87a4ee68d17400a45a9190a450505050565b611604612440565b600a81111561164d5760405162461bcd60e51b81526020600482015260156024820152744665652063616e6e6f74206578636565642031302560581b604482015260640161075c565b600980549082905560408051828152602081018490527f936008f1e981d6f48d4a529714c27d74d644750a1d215451212ce0f2476f2fbc91015b60405180910390a15050565b6060600180546106749061325b565b6107273383836125cc565b6008546060905f60015b828111611736575f818152600b6020526040902060050154600160a01b900460ff1680156116f557505f818152600b60205260409020600401548611155b801561171157505f818152600b60205260409020600401548510155b156117245781611720816132cf565b9250505b8061172e816132cf565b9150506116b7565b505f816001600160401b0381111561175057611750612e9a565b60405190808252806020026020018201604052801561178957816020015b611776612d3b565b81526020019060019003908161176e5790505b5090505f60015b8481116119ae575f818152600b6020526040902060050154600160a01b900460ff1680156117ce57505f818152600b60205260409020600401548811155b80156117ea57505f818152600b60205260409020600401548710155b1561199c57600b5f8281526020019081526020015f206040518060e00160405290815f82015481526020016001820180546118249061325b565b80601f01602080910402602001604051908101604052809291908181526020018280546118509061325b565b801561189b5780601f106118725761010080835404028352916020019161189b565b820191905f5260205f20905b81548152906001019060200180831161187e57829003601f168201915b505050505081526020016002820180546118b49061325b565b80601f01602080910402602001604051908101604052809291908181526020018280546118e09061325b565b801561192b5780601f106119025761010080835404028352916020019161192b565b820191905f5260205f20905b81548152906001019060200180831161190e57829003601f168201915b505050918352505060038201546020820152600482015460408201526005909101546001600160a01b0381166060830152600160a01b900460ff161515608090910152835184908490811061198257611982613487565b60200260200101819052508180611998906132cf565b9250505b806119a6816132cf565b915050611790565b50909695505050505050565b6008546060905f816001600160401b038111156119d9576119d9612e9a565b604051908082528060200260200182016040528015611a1257816020015b6119ff612d3b565b8152602001906001900390816119f75790505b5090505f5b82811015611bcf57600b5f611a2d836001613474565b81526020019081526020015f206040518060e00160405290815f8201548152602001600182018054611a5e9061325b565b80601f0160208091040260200160405190810160405280929190818152602001828054611a8a9061325b565b8015611ad55780601f10611aac57610100808354040283529160200191611ad5565b820191905f5260205f20905b815481529060010190602001808311611ab857829003601f168201915b50505050508152602001600282018054611aee9061325b565b80601f0160208091040260200160405190810160405280929190818152602001828054611b1a9061325b565b8015611b655780601f10611b3c57610100808354040283529160200191611b65565b820191905f5260205f20905b815481529060010190602001808311611b4857829003601f168201915b505050918352505060038201546020820152600482015460408201526005909101546001600160a01b0381166060830152600160a01b900460ff1615156080909101528251839083908110611bbc57611bbc613487565b6020908102919091010152600101611a17565b5092915050565b611be1848484610823565b6108a6338585858561266a565b6001600160a01b0381165f908152600c60209081526040808320805482518185028101850190935280835260609493830182828015611c4a57602002820191905f5260205f20905b815481526020019060010190808311611c36575b505050505090505f81516001600160401b03811115611c6b57611c6b612e9a565b604051908082528060200260200182016040528015611ca457816020015b611c91612d3b565b815260200190600190039081611c895790505b5090505f5b8251811015611e7157600b5f848381518110611cc757611cc7613487565b602002602001015181526020019081526020015f206040518060e00160405290815f8201548152602001600182018054611d009061325b565b80601f0160208091040260200160405190810160405280929190818152602001828054611d2c9061325b565b8015611d775780601f10611d4e57610100808354040283529160200191611d77565b820191905f5260205f20905b815481529060010190602001808311611d5a57829003601f168201915b50505050508152602001600282018054611d909061325b565b80601f0160208091040260200160405190810160405280929190818152602001828054611dbc9061325b565b8015611e075780601f10611dde57610100808354040283529160200191611e07565b820191905f5260205f20905b815481529060010190602001808311611dea57829003601f168201915b505050918352505060038201546020820152600482015460408201526005909101546001600160a01b0381166060830152600160a01b900460ff1615156080909101528251839083908110611e5e57611e5e613487565b6020908102919091010152600101611ca9565b509392505050565b606061066082612792565b6001600160a01b039182165f90815260056020908152604080832093909416825291909152205460ff1690565b611eb9612440565b6001600160a01b038116611ee257604051631e4fbdf760e01b81525f600482015260240161075c565b611eeb8161257b565b50565b805f611ef982612247565b6001600160a01b031603611f1f5760405162461bcd60e51b815260040161075c9061328d565b33611f2983610cc7565b6001600160a01b031614611f5057604051630598950160e21b815260040160405180910390fd5b5f828152600b602052604080822060058101805460ff60a01b191690556004018290555183917fd9634177085743dc78f994ddbeb3ef9f0b4ec65efc3a50600f0e758dbf8819b491a25050565b815f611fa882612247565b6001600160a01b031603611fce5760405162461bcd60e51b815260040161075c9061328d565b33611fd884610cc7565b6001600160a01b031614611fff57604051630598950160e21b815260040160405180910390fd5b5f821161201f5760405163162908e360e11b815260040160405180910390fd5b5f838152600b60205260409081902060058101805460ff60a01b1916600160a01b1790556004018390555183907fd7eb5635a91daa6c8336a751c696002c8243f97bad99a81269931e46395247099061207b9085815260200190565b60405180910390a2505050565b600b6020525f9081526040902080546001820180549192916120a99061325b565b80601f01602080910402602001604051908101604052809291908181526020018280546120d59061325b565b80156121205780601f106120f757610100808354040283529160200191612120565b820191905f5260205f20905b81548152906001019060200180831161210357829003601f168201915b5050505050908060020180546121359061325b565b80601f01602080910402602001604051908101604052809291908181526020018280546121619061325b565b80156121ac5780601f10612183576101008083540402835291602001916121ac565b820191905f5260205f20905b81548152906001019060200180831161218f57829003601f168201915b5050505060038301546004840154600590940154929390929091506001600160a01b03811690600160a01b900460ff1687565b5f6001600160e01b03198216632483248360e11b148061066057506106608261289d565b5f5f61220e83612247565b90506001600160a01b03811661066057604051637e27328960e01b81526004810184905260240161075c565b610a1f83838360016128ec565b5f908152600260205260409020546001600160a01b031690565b6001600160a01b0382165f908152600c60205260408120905b81548110156108a6578282828154811061229657612296613487565b905f5260205f2001540361231357815482906122b490600190613461565b815481106122c4576122c4613487565b905f5260205f2001548282815481106122df576122df613487565b905f5260205f200181905550818054806122fb576122fb61350c565b600190038181905f5260205f20015f905590556108a6565b60010161227a565b5f6123275f835f612353565b90506001600160a01b03811661072757604051637e27328960e01b81526004810183905260240161075c565b5f5f61235e84612247565b90506001600160a01b0383161561237a5761237a8184866129f0565b6001600160a01b038116156123b4576123955f855f5f6128ec565b6001600160a01b0381165f90815260036020526040902080545f190190555b6001600160a01b038516156123e2576001600160a01b0385165f908152600360205260409020805460010190555b5f8481526002602052604080822080546001600160a01b0319166001600160a01b0389811691821790925591518793918516917fddf252ad1be2c89b69c2b068fc378daa952ba7f163c4a11628f55a4df523b3ef91a4949350505050565b6007546001600160a01b03163314610f2d5760405163118cdaa760e01b815233600482015260240161075c565b610727828260405180602001604052805f815250612a54565b5f82815260066020526040902061249d828261332b565b506040518281527ff8e1a15aba9398e019f0b49df1a4fde98ee17ae345cb5f6b5e2c27f5033e8ce790602001611687565b6001600160a01b0382166124f757604051633250574960e11b81525f600482015260240161075c565b5f61250383835f612353565b90506001600160a01b03811661252f57604051637e27328960e01b81526004810183905260240161075c565b836001600160a01b0316816001600160a01b0316146108a6576040516364283d7b60e01b81526001600160a01b038086166004830152602482018490528216604482015260640161075c565b600780546001600160a01b038381166001600160a01b0319831681179093556040519116919082907f8be0079c531659141344cd1fd0a4f28419497f9722a3daafe3b4186f6b6457e0905f90a35050565b6001600160a01b0382166125fe57604051630b61174360e31b81526001600160a01b038316600482015260240161075c565b6001600160a01b038381165f81815260056020908152604080832094871680845294825291829020805460ff191686151590811790915591519182527f17307eab39ab6107e8899845ad3d59bd9653f200f220920489ca2b5937696c31910160405180910390a3505050565b6001600160a01b0383163b1561278b57604051630a85bd0160e11b81526001600160a01b0384169063150b7a02906126ac908890889087908790600401613520565b6020604051808303815f875af19250505080156126e6575060408051601f3d908101601f191682019092526126e39181019061355c565b60015b61274d573d808015612713576040519150601f19603f3d011682016040523d82523d5f602084013e612718565b606091505b5080515f0361274557604051633250574960e11b81526001600160a01b038516600482015260240161075c565b805160208201fd5b6001600160e01b03198116630a85bd0160e11b1461278957604051633250574960e11b81526001600160a01b038516600482015260240161075c565b505b5050505050565b606061279d82612203565b505f82815260066020526040812080546127b69061325b565b80601f01602080910402602001604051908101604052809291908181526020018280546127e29061325b565b801561282d5780601f106128045761010080835404028352916020019161282d565b820191905f5260205f20905b81548152906001019060200180831161281057829003601f168201915b505050505090505f61284960408051602081019091525f815290565b905080515f0361285a575092915050565b81511561288c57808260405160200161287492919061358e565b60405160208183030381529060405292505050919050565b61289584612a6b565b949350505050565b5f6001600160e01b031982166380ac58cd60e01b14806128cd57506001600160e01b03198216635b5e139f60e01b145b8061066057506301ffc9a760e01b6001600160e01b0319831614610660565b808061290057506001600160a01b03821615155b156129c1575f61290f84612203565b90506001600160a01b0383161580159061293b5750826001600160a01b0316816001600160a01b031614155b801561294e575061294c8184611e84565b155b156129775760405163a9fbf51f60e01b81526001600160a01b038416600482015260240161075c565b81156129bf5783856001600160a01b0316826001600160a01b03167f8c5be1e5ebec7d5bd14f71427d1e84f3dd0314c0f7b2291e5b200ac8c7c3b92560405160405180910390a45b505b50505f90815260046020526040902080546001600160a01b0319166001600160a01b0392909216919091179055565b6129fb838383612adc565b610a1f576001600160a01b038316612a2957604051637e27328960e01b81526004810182905260240161075c565b60405163177e802f60e01b81526001600160a01b03831660048201526024810182905260440161075c565b612a5e8383612b3d565b610a1f335f85858561266a565b6060612a7682612203565b505f612a8c60408051602081019091525f815290565b90505f815111612aaa5760405180602001604052805f815250612ad5565b80612ab484612b9e565b604051602001612ac592919061358e565b6040516020818303038152906040525b9392505050565b5f6001600160a01b038316158015906128955750826001600160a01b0316846001600160a01b03161480612b155750612b158484611e84565b806128955750505f908152600460205260409020546001600160a01b03908116911614919050565b6001600160a01b038216612b6657604051633250574960e11b81525f600482015260240161075c565b5f612b7283835f612353565b90506001600160a01b03811615610a1f576040516339e3563760e11b81525f600482015260240161075c565b60605f612baa83612c2d565b60010190505f816001600160401b03811115612bc857612bc8612e9a565b6040519080825280601f01601f191660200182016040528015612bf2576020820181803683370190505b5090508181016020015b5f19016f181899199a1a9b1b9c1cb0b131b232b360811b600a86061a8153600a8504945084612bfc57509392505050565b5f8072184f03e93ff9f4daa797ed6e38ed64bf6a1f0160401b8310612c6b5772184f03e93ff9f4daa797ed6e38ed64bf6a1f0160401b830492506040015b6d04ee2d6d415b85acef81000000008310612c97576d04ee2d6d415b85acef8100000000830492506020015b662386f26fc100008310612cb557662386f26fc10000830492506010015b6305f5e1008310612ccd576305f5e100830492506008015b6127108310612ce157612710830492506004015b60648310612cf3576064830492506002015b600a83106106605760010192915050565b508054612d109061325b565b5f825580601f10612d1f575050565b601f0160209004905f5260205f2090810190611eeb9190612d7e565b6040518060e001604052805f815260200160608152602001606081526020015f81526020015f81526020015f6001600160a01b031681526020015f151581525090565b5b80821115612d92575f8155600101612d7f565b5090565b6001600160e01b031981168114611eeb575f5ffd5b5f60208284031215612dbb575f5ffd5b8135612ad581612d96565b5f81518084528060208401602086015e5f602082860101526020601f19601f83011685010191505092915050565b602081525f612ad56020830184612dc6565b5f60208284031215612e16575f5ffd5b5035919050565b80356001600160a01b0381168114612e33575f5ffd5b919050565b5f5f60408385031215612e49575f5ffd5b612e5283612e1d565b946020939093013593505050565b5f5f5f60608486031215612e72575f5ffd5b612e7b84612e1d565b9250612e8960208501612e1d565b929592945050506040919091013590565b634e487b7160e01b5f52604160045260245ffd5b5f5f6001600160401b03841115612ec757612ec7612e9a565b50604051601f19601f85018116603f011681018181106001600160401b0382111715612ef557612ef5612e9a565b604052838152905080828401851015612f0c575f5ffd5b838360208301375f60208583010152509392505050565b5f82601f830112612f32575f5ffd5b612ad583833560208501612eae565b5f5f5f5f60808587031215612f54575f5ffd5b84356001600160401b03811115612f69575f5ffd5b612f7587828801612f23565b94505060208501356001600160401b03811115612f90575f5ffd5b612f9c87828801612f23565b9350506040850135915060608501356001600160401b03811115612fbe575f5ffd5b612fca87828801612f23565b91505092959194509250565b805182525f602082015160e06020850152612ff460e0850182612dc6565b90506040830151848203604086015261300d8282612dc6565b606085810151908701526080808601519087015260a0808601516001600160a01b03169087015260c09485015115159490950193909352509192915050565b602081525f612ad56020830184612fd6565b5f6020828403121561306e575f5ffd5b612ad582612e1d565b5f602082016020835280845180835260408501915060408160051b8601019250602086015f5b828110156130ce57603f198786030184526130b9858351612fd6565b9450602093840193919091019060010161309d565b50929695505050505050565b5f602082840312156130ea575f5ffd5b81356001600160401b038111156130ff575f5ffd5b61289584828501612f23565b5f5f6040838503121561311c575f5ffd5b50508035926020909101359150565b5f5f6040838503121561313c575f5ffd5b61314583612e1d565b915060208301358015158114613159575f5ffd5b809150509250929050565b5f5f5f5f60808587031215613177575f5ffd5b61318085612e1d565b935061318e60208601612e1d565b92506040850135915060608501356001600160401b038111156131af575f5ffd5b8501601f810187136131bf575f5ffd5b612fca87823560208401612eae565b5f5f604083850312156131df575f5ffd5b6131e883612e1d565b91506131f660208401612e1d565b90509250929050565b87815260e060208201525f61321760e0830189612dc6565b82810360408401526132298189612dc6565b6060840197909752505060808101939093526001600160a01b039190911660a0830152151560c0909101529392505050565b600181811c9082168061326f57607f821691505b602082108103610bdf57634e487b7160e01b5f52602260045260245ffd5b602080825260149082015273151bdad95b88191bd95cc81b9bdd08195e1a5cdd60621b604082015260600190565b634e487b7160e01b5f52601160045260245ffd5b5f600182016132e0576132e06132bb565b5060010190565b601f821115610a1f57805f5260205f20601f840160051c8101602085101561330c5750805b601f840160051c820191505b8181101561278b575f8155600101613318565b81516001600160401b0381111561334457613344612e9a565b61335881613352845461325b565b846132e7565b6020601f82116001811461338a575f83156133735750848201515b5f19600385901b1c1916600184901b17845561278b565b5f84815260208120601f198516915b828110156133b95787850151825560209485019460019092019101613399565b50848210156133d657868401515f19600387901b60f8161c191681555b50505050600190811b01905550565b608081525f6133f76080830187612dc6565b82810360208401526134098187612dc6565b604084019590955250506001600160a01b039190911660609091015292915050565b8082028115828204841417610660576106606132bb565b5f8261345c57634e487b7160e01b5f52601260045260245ffd5b500490565b81810381811115610660576106606132bb565b80820180821115610660576106606132bb565b634e487b7160e01b5f52603260045260245ffd5b5f5f83546134a88161325b565b6001821680156134bf57600181146134d457613501565b60ff1983168652811515820286019350613501565b865f5260205f205f5b838110156134f9578154888201526001909101906020016134dd565b505081860193505b509195945050505050565b634e487b7160e01b5f52603160045260245ffd5b6001600160a01b03858116825284166020820152604081018390526080606082018190525f9061355290830184612dc6565b9695505050505050565b5f6020828403121561356c575f5ffd5b8151612ad581612d96565b5f81518060208401855e5f93019283525090919050565b5f61289561359c8386613577565b8461357756fea26469706673582212208980e6cdc0d3e8df66de45cfb763a0c81db449e5406fe51f9d7e9bfb1dd15bea64736f6c634300081c0033",
  "linkReferences": {},
  "deployedLinkReferences": {},
  "immutableReferences": {},
  "inputSourceName": "project/contracts/CarDealer.sol",
  "buildInfoId": "solc-0_8_28-5f300c47dd5923cc1f54505275a0a0fe1b90d426"
}